{
  "_format": "hh-sol-artifact-1",
  "contractName": "Funding",
  "sourceName": "contracts/reward_funding.sol",
  "abi": [
    {
      "inputs": [
        {
          "internalType": "uint256",
          "name": "_amt",
          "type": "uint256"
        },
        {
          "internalType": "uint256",
          "name": "_starTime",
          "type": "uint256"
        },
        {
          "internalType": "uint256",
          "name": "_endTime",
          "type": "uint256"
        }
      ],
      "stateMutability": "nonpayable",
      "type": "constructor"
    },
    {
      "anonymous": false,
      "inputs": [
        {
          "indexed": true,
          "internalType": "address",
          "name": "owner",
          "type": "address"
        },
        {
          "indexed": true,
          "internalType": "address",
          "name": "approved",
          "type": "address"
        },
        {
          "indexed": true,
          "internalType": "uint256",
          "name": "tokenId",
          "type": "uint256"
        }
      ],
      "name": "Approval",
      "type": "event"
    },
    {
      "anonymous": false,
      "inputs": [
        {
          "indexed": true,
          "internalType": "address",
          "name": "owner",
          "type": "address"
        },
        {
          "indexed": true,
          "internalType": "address",
          "name": "operator",
          "type": "address"
        },
        {
          "indexed": false,
          "internalType": "bool",
          "name": "approved",
          "type": "bool"
        }
      ],
      "name": "ApprovalForAll",
      "type": "event"
    },
    {
      "anonymous": false,
      "inputs": [
        {
          "indexed": true,
          "internalType": "address",
          "name": "from",
          "type": "address"
        },
        {
          "indexed": true,
          "internalType": "address",
          "name": "to",
          "type": "address"
        },
        {
          "indexed": true,
          "internalType": "uint256",
          "name": "tokenId",
          "type": "uint256"
        }
      ],
      "name": "Transfer",
      "type": "event"
    },
    {
      "anonymous": false,
      "inputs": [
        {
          "indexed": false,
          "internalType": "address",
          "name": "from",
          "type": "address"
        },
        {
          "indexed": false,
          "internalType": "uint256",
          "name": "value",
          "type": "uint256"
        }
      ],
      "name": "invested",
      "type": "event"
    },
    {
      "anonymous": false,
      "inputs": [
        {
          "indexed": false,
          "internalType": "address",
          "name": "from",
          "type": "address"
        },
        {
          "indexed": false,
          "internalType": "address",
          "name": "to",
          "type": "address"
        },
        {
          "indexed": false,
          "internalType": "uint256",
          "name": "value",
          "type": "uint256"
        }
      ],
      "name": "toInvsetors",
      "type": "event"
    },
    {
      "anonymous": false,
      "inputs": [
        {
          "indexed": false,
          "internalType": "address",
          "name": "from",
          "type": "address"
        },
        {
          "indexed": false,
          "internalType": "address",
          "name": "to",
          "type": "address"
        },
        {
          "indexed": false,
          "internalType": "uint256",
          "name": "value",
          "type": "uint256"
        }
      ],
      "name": "toManager",
      "type": "event"
    },
    {
      "inputs": [],
      "name": "FundsToManager",
      "outputs": [],
      "stateMutability": "payable",
      "type": "function"
    },
    {
      "inputs": [],
      "name": "amntRequired",
      "outputs": [
        {
          "internalType": "uint256",
          "name": "a",
          "type": "uint256"
        }
      ],
      "stateMutability": "view",
      "type": "function"
    },
    {
      "inputs": [
        {
          "internalType": "address",
          "name": "to",
          "type": "address"
        },
        {
          "internalType": "uint256",
          "name": "tokenId",
          "type": "uint256"
        }
      ],
      "name": "approve",
      "outputs": [],
      "stateMutability": "nonpayable",
      "type": "function"
    },
    {
      "inputs": [
        {
          "internalType": "address",
          "name": "owner",
          "type": "address"
        }
      ],
      "name": "balanceOf",
      "outputs": [
        {
          "internalType": "uint256",
          "name": "",
          "type": "uint256"
        }
      ],
      "stateMutability": "view",
      "type": "function"
    },
    {
      "inputs": [],
      "name": "contractBalance",
      "outputs": [
        {
          "internalType": "uint256",
          "name": "",
          "type": "uint256"
        }
      ],
      "stateMutability": "view",
      "type": "function"
    },
    {
      "inputs": [],
      "name": "endTime",
      "outputs": [
        {
          "internalType": "uint256",
          "name": "",
          "type": "uint256"
        }
      ],
      "stateMutability": "view",
      "type": "function"
    },
    {
      "inputs": [
        {
          "internalType": "uint256",
          "name": "tokenId",
          "type": "uint256"
        }
      ],
      "name": "getApproved",
      "outputs": [
        {
          "internalType": "address",
          "name": "",
          "type": "address"
        }
      ],
      "stateMutability": "view",
      "type": "function"
    },
    {
      "inputs": [],
      "name": "goalAmt",
      "outputs": [
        {
          "internalType": "uint256",
          "name": "",
          "type": "uint256"
        }
      ],
      "stateMutability": "view",
      "type": "function"
    },
    {
      "inputs": [],
      "name": "goalTime",
      "outputs": [
        {
          "internalType": "uint256",
          "name": "",
          "type": "uint256"
        }
      ],
      "stateMutability": "view",
      "type": "function"
    },
    {
      "inputs": [],
      "name": "hasFundingEnded",
      "outputs": [
        {
          "internalType": "bool",
          "name": "",
          "type": "bool"
        }
      ],
      "stateMutability": "view",
      "type": "function"
    },
    {
      "inputs": [],
      "name": "hasFundingStarted",
      "outputs": [
        {
          "internalType": "bool",
          "name": "",
          "type": "bool"
        }
      ],
      "stateMutability": "view",
      "type": "function"
    },
    {
      "inputs": [
        {
          "internalType": "address",
          "name": "",
          "type": "address"
        }
      ],
      "name": "investors",
      "outputs": [
        {
          "internalType": "uint256",
          "name": "",
          "type": "uint256"
        }
      ],
      "stateMutability": "view",
      "type": "function"
    },
    {
      "inputs": [],
      "name": "investorsHistory",
      "outputs": [
        {
          "internalType": "address[]",
          "name": "",
          "type": "address[]"
        }
      ],
      "stateMutability": "view",
      "type": "function"
    },
    {
      "inputs": [
        {
          "internalType": "address",
          "name": "owner",
          "type": "address"
        },
        {
          "internalType": "address",
          "name": "operator",
          "type": "address"
        }
      ],
      "name": "isApprovedForAll",
      "outputs": [
        {
          "internalType": "bool",
          "name": "",
          "type": "bool"
        }
      ],
      "stateMutability": "view",
      "type": "function"
    },
    {
      "inputs": [],
      "name": "manager",
      "outputs": [
        {
          "internalType": "address payable",
          "name": "",
          "type": "address"
        }
      ],
      "stateMutability": "view",
      "type": "function"
    },
    {
      "inputs": [],
      "name": "mintReward",
      "outputs": [],
      "stateMutability": "nonpayable",
      "type": "function"
    },
    {
      "inputs": [],
      "name": "name",
      "outputs": [
        {
          "internalType": "string",
          "name": "",
          "type": "string"
        }
      ],
      "stateMutability": "view",
      "type": "function"
    },
    {
      "inputs": [],
      "name": "noOfInvestors",
      "outputs": [
        {
          "internalType": "uint256",
          "name": "",
          "type": "uint256"
        }
      ],
      "stateMutability": "view",
      "type": "function"
    },
    {
      "inputs": [
        {
          "internalType": "uint256",
          "name": "tokenId",
          "type": "uint256"
        }
      ],
      "name": "ownerOf",
      "outputs": [
        {
          "internalType": "address",
          "name": "",
          "type": "address"
        }
      ],
      "stateMutability": "view",
      "type": "function"
    },
    {
      "inputs": [],
      "name": "reFundingToInvestors",
      "outputs": [],
      "stateMutability": "nonpayable",
      "type": "function"
    },
    {
      "inputs": [
        {
          "internalType": "address",
          "name": "from",
          "type": "address"
        },
        {
          "internalType": "address",
          "name": "to",
          "type": "address"
        },
        {
          "internalType": "uint256",
          "name": "tokenId",
          "type": "uint256"
        }
      ],
      "name": "safeTransferFrom",
      "outputs": [],
      "stateMutability": "nonpayable",
      "type": "function"
    },
    {
      "inputs": [
        {
          "internalType": "address",
          "name": "from",
          "type": "address"
        },
        {
          "internalType": "address",
          "name": "to",
          "type": "address"
        },
        {
          "internalType": "uint256",
          "name": "tokenId",
          "type": "uint256"
        },
        {
          "internalType": "bytes",
          "name": "data",
          "type": "bytes"
        }
      ],
      "name": "safeTransferFrom",
      "outputs": [],
      "stateMutability": "nonpayable",
      "type": "function"
    },
    {
      "inputs": [
        {
          "internalType": "address",
          "name": "operator",
          "type": "address"
        },
        {
          "internalType": "bool",
          "name": "approved",
          "type": "bool"
        }
      ],
      "name": "setApprovalForAll",
      "outputs": [],
      "stateMutability": "nonpayable",
      "type": "function"
    },
    {
      "inputs": [],
      "name": "startTime",
      "outputs": [
        {
          "internalType": "uint256",
          "name": "",
          "type": "uint256"
        }
      ],
      "stateMutability": "view",
      "type": "function"
    },
    {
      "inputs": [
        {
          "internalType": "bytes4",
          "name": "interfaceId",
          "type": "bytes4"
        }
      ],
      "name": "supportsInterface",
      "outputs": [
        {
          "internalType": "bool",
          "name": "",
          "type": "bool"
        }
      ],
      "stateMutability": "view",
      "type": "function"
    },
    {
      "inputs": [],
      "name": "symbol",
      "outputs": [
        {
          "internalType": "string",
          "name": "",
          "type": "string"
        }
      ],
      "stateMutability": "view",
      "type": "function"
    },
    {
      "inputs": [],
      "name": "toGetfunds",
      "outputs": [],
      "stateMutability": "payable",
      "type": "function"
    },
    {
      "inputs": [],
      "name": "tokenId",
      "outputs": [
        {
          "internalType": "uint256",
          "name": "",
          "type": "uint256"
        }
      ],
      "stateMutability": "view",
      "type": "function"
    },
    {
      "inputs": [
        {
          "internalType": "uint256",
          "name": "tokenId",
          "type": "uint256"
        }
      ],
      "name": "tokenURI",
      "outputs": [
        {
          "internalType": "string",
          "name": "",
          "type": "string"
        }
      ],
      "stateMutability": "view",
      "type": "function"
    },
    {
      "inputs": [],
      "name": "totalAmt",
      "outputs": [
        {
          "internalType": "uint256",
          "name": "",
          "type": "uint256"
        }
      ],
      "stateMutability": "view",
      "type": "function"
    },
    {
      "inputs": [
        {
          "internalType": "address",
          "name": "from",
          "type": "address"
        },
        {
          "internalType": "address",
          "name": "to",
          "type": "address"
        },
        {
          "internalType": "uint256",
          "name": "tokenId",
          "type": "uint256"
        }
      ],
      "name": "transferFrom",
      "outputs": [],
      "stateMutability": "nonpayable",
      "type": "function"
    }
  ],
  "bytecode": "0x60806040526000600a553480156200001657600080fd5b5060405162003eeb38038062003eeb83398181016040528101906200003c919062000189565b6040518060400160405280600c81526020017f4d696e692070726f6a65637400000000000000000000000000000000000000008152506040518060400160405280600281526020017f4d4e0000000000000000000000000000000000000000000000000000000000008152508160009081620000b9919062000455565b508060019081620000cb919062000455565b50505082600c819055508142620000e391906200056b565b600f8190555080600f54620000f991906200056b565b600e8190555033600960006101000a81548173ffffffffffffffffffffffffffffffffffffffff021916908373ffffffffffffffffffffffffffffffffffffffff160217905550505050620005a6565b600080fd5b6000819050919050565b62000163816200014e565b81146200016f57600080fd5b50565b600081519050620001838162000158565b92915050565b600080600060608486031215620001a557620001a462000149565b5b6000620001b58682870162000172565b9350506020620001c88682870162000172565b9250506040620001db8682870162000172565b9150509250925092565b600081519050919050565b7f4e487b7100000000000000000000000000000000000000000000000000000000600052604160045260246000fd5b7f4e487b7100000000000000000000000000000000000000000000000000000000600052602260045260246000fd5b600060028204905060018216806200026757607f821691505b6020821081036200027d576200027c6200021f565b5b50919050565b60008190508160005260206000209050919050565b60006020601f8301049050919050565b600082821b905092915050565b600060088302620002e77fffffffffffffffffffffffffffffffffffffffffffffffffffffffffffffffff82620002a8565b620002f38683620002a8565b95508019841693508086168417925050509392505050565b6000819050919050565b600062000336620003306200032a846200014e565b6200030b565b6200014e565b9050919050565b6000819050919050565b620003528362000315565b6200036a62000361826200033d565b848454620002b5565b825550505050565b600090565b6200038162000372565b6200038e81848462000347565b505050565b5b81811015620003b657620003aa60008262000377565b60018101905062000394565b5050565b601f8211156200040557620003cf8162000283565b620003da8462000298565b81016020851015620003ea578190505b62000402620003f98562000298565b83018262000393565b50505b505050565b600082821c905092915050565b60006200042a600019846008026200040a565b1980831691505092915050565b600062000445838362000417565b9150826002028217905092915050565b6200046082620001e5565b67ffffffffffffffff8111156200047c576200047b620001f0565b5b6200048882546200024e565b62000495828285620003ba565b600060209050601f831160018114620004cd5760008415620004b8578287015190505b620004c4858262000437565b86555062000534565b601f198416620004dd8662000283565b60005b828110156200050757848901518255600182019150602085019450602081019050620004e0565b8683101562000527578489015162000523601f89168262000417565b8355505b6001600288020188555050505b505050505050565b7f4e487b7100000000000000000000000000000000000000000000000000000000600052601160045260246000fd5b600062000578826200014e565b915062000585836200014e565b9250828201905080821115620005a0576200059f6200053c565b5b92915050565b61393580620005b66000396000f3fe6080604052600436106101d85760003560e01c80636352211e11610102578063a22cb46511610095578063dc25852f11610064578063dc25852f1461067f578063df068438146106aa578063e9595a7f146106d5578063e985e9c5146106df576101d8565b8063a22cb465146105c5578063a73b1216146105ee578063b88d4fde14610619578063c87b56dd14610642576101d8565b806378e97925116100d157806378e97925146105195780638b7afe2e146105445780639075825b1461056f57806395d89b411461059a576101d8565b80636352211e146104375780636f7bc9be1461047457806370a08231146104b157806377dee015146104ee576101d8565b8063208152db1161017a5780633ba01132116101495780633ba011321461038d5780633d7de6b6146103b857806342842e0e146103e3578063481c6a751461040c576101d8565b8063208152db146102f757806323b872dd146103225780632d2973631461034b5780633197cbb614610362576101d8565b8063095ea7b3116101b6578063095ea7b3146102825780630ac9a58d146102ab578063174f57af146102b557806317d70f7c146102cc576101d8565b806301ffc9a7146101dd57806306fdde031461021a578063081812fc14610245575b600080fd5b3480156101e957600080fd5b5061020460048036038101906101ff9190612471565b61071c565b60405161021191906124b9565b60405180910390f35b34801561022657600080fd5b5061022f6107fe565b60405161023c9190612564565b60405180910390f35b34801561025157600080fd5b5061026c600480360381019061026791906125bc565b610890565b604051610279919061262a565b60405180910390f35b34801561028e57600080fd5b506102a960048036038101906102a49190612671565b6108d6565b005b6102b36109ed565b005b3480156102c157600080fd5b506102ca610b63565b005b3480156102d857600080fd5b506102e1610d09565b6040516102ee91906126c0565b60405180910390f35b34801561030357600080fd5b5061030c610d0f565b60405161031991906126c0565b60405180910390f35b34801561032e57600080fd5b50610349600480360381019061034491906126db565b610d15565b005b34801561035757600080fd5b50610360610d75565b005b34801561036e57600080fd5b50610377610f5b565b60405161038491906126c0565b60405180910390f35b34801561039957600080fd5b506103a2610f61565b6040516103af91906126c0565b60405180910390f35b3480156103c457600080fd5b506103cd610f8e565b6040516103da91906124b9565b60405180910390f35b3480156103ef57600080fd5b5061040a600480360381019061040591906126db565b610fab565b005b34801561041857600080fd5b50610421610fcb565b60405161042e919061274f565b60405180910390f35b34801561044357600080fd5b5061045e600480360381019061045991906125bc565b610ff1565b60405161046b919061262a565b60405180910390f35b34801561048057600080fd5b5061049b6004803603810190610496919061276a565b6110a2565b6040516104a891906126c0565b60405180910390f35b3480156104bd57600080fd5b506104d860048036038101906104d3919061276a565b6110ba565b6040516104e591906126c0565b60405180910390f35b3480156104fa57600080fd5b50610503611171565b6040516105109190612855565b60405180910390f35b34801561052557600080fd5b5061052e6111ff565b60405161053b91906126c0565b60405180910390f35b34801561055057600080fd5b50610559611205565b60405161056691906126c0565b60405180910390f35b34801561057b57600080fd5b5061058461120d565b60405161059191906126c0565b60405180910390f35b3480156105a657600080fd5b506105af611213565b6040516105bc9190612564565b60405180910390f35b3480156105d157600080fd5b506105ec60048036038101906105e791906128a3565b6112a5565b005b3480156105fa57600080fd5b506106036112bb565b60405161061091906124b9565b60405180910390f35b34801561062557600080fd5b50610640600480360381019061063b9190612a18565b6112d7565b005b34801561064e57600080fd5b50610669600480360381019061066491906125bc565b611339565b6040516106769190612564565b60405180910390f35b34801561068b57600080fd5b506106946113a1565b6040516106a191906126c0565b60405180910390f35b3480156106b657600080fd5b506106bf6113a7565b6040516106cc91906126c0565b60405180910390f35b6106dd6113ad565b005b3480156106eb57600080fd5b5061070660048036038101906107019190612a9b565b6117c8565b60405161071391906124b9565b60405180910390f35b60007f80ac58cd000000000000000000000000000000000000000000000000000000007bffffffffffffffffffffffffffffffffffffffffffffffffffffffff1916827bffffffffffffffffffffffffffffffffffffffffffffffffffffffff191614806107e757507f5b5e139f000000000000000000000000000000000000000000000000000000007bffffffffffffffffffffffffffffffffffffffffffffffffffffffff1916827bffffffffffffffffffffffffffffffffffffffffffffffffffffffff1916145b806107f757506107f68261185c565b5b9050919050565b60606000805461080d90612b0a565b80601f016020809104026020016040519081016040528092919081815260200182805461083990612b0a565b80156108865780601f1061085b57610100808354040283529160200191610886565b820191906000526020600020905b81548152906001019060200180831161086957829003601f168201915b5050505050905090565b600061089b826118c6565b6004600083815260200190815260200160002060009054906101000a900473ffffffffffffffffffffffffffffffffffffffff169050919050565b60006108e182610ff1565b90508073ffffffffffffffffffffffffffffffffffffffff168373ffffffffffffffffffffffffffffffffffffffff1603610951576040517f08c379a000000000000000000000000000000000000000000000000000000000815260040161094890612bad565b60405180910390fd5b8073ffffffffffffffffffffffffffffffffffffffff16610970611911565b73ffffffffffffffffffffffffffffffffffffffff16148061099f575061099e81610999611911565b6117c8565b5b6109de576040517f08c379a00000000000000000000000000000000000000000000000000000000081526004016109d590612c3f565b60405180910390fd5b6109e88383611919565b505050565b600960009054906101000a900473ffffffffffffffffffffffffffffffffffffffff1673ffffffffffffffffffffffffffffffffffffffff163373ffffffffffffffffffffffffffffffffffffffff1614610a7d576040517f08c379a0000000000000000000000000000000000000000000000000000000008152600401610a7490612cd1565b60405180910390fd5b600e5442118015610a925750600c54600a5410155b610a9b57600080fd5b600960009054906101000a900473ffffffffffffffffffffffffffffffffffffffff1673ffffffffffffffffffffffffffffffffffffffff166108fc479081150290604051600060405180830381858888f19350505050158015610b03573d6000803e3d6000fd5b507f07a5ab2ddc4910156c0bc8930cd50855e09c614e331ea05dc771ce4e2e5ee8fb30600960009054906101000a900473ffffffffffffffffffffffffffffffffffffffff1647604051610b5993929190612d50565b60405180910390a1565b600e5442118015610b785750600c54600a5410155b610bb7576040517f08c379a0000000000000000000000000000000000000000000000000000000008152600401610bae90612df9565b60405180910390fd5b601160003373ffffffffffffffffffffffffffffffffffffffff1673ffffffffffffffffffffffffffffffffffffffff16815260200190815260200160002060009054906101000a900460ff16610c43576040517f08c379a0000000000000000000000000000000000000000000000000000000008152600401610c3a90612e65565b60405180910390fd5b600b5460125410610c89576040517f08c379a0000000000000000000000000000000000000000000000000000000008152600401610c8090612ed1565b60405180910390fd5b610c95336012546119d2565b6000601160003373ffffffffffffffffffffffffffffffffffffffff1673ffffffffffffffffffffffffffffffffffffffff16815260200190815260200160002060006101000a81548160ff021916908315150217905550600160126000828254610d009190612f20565b92505081905550565b60125481565b600c5481565b610d26610d20611911565b82611bab565b610d65576040517f08c379a0000000000000000000000000000000000000000000000000000000008152600401610d5c90612fc6565b60405180910390fd5b610d70838383611c40565b505050565b6000600660003373ffffffffffffffffffffffffffffffffffffffff1673ffffffffffffffffffffffffffffffffffffffff1681526020019081526020016000205411610df7576040517f08c379a0000000000000000000000000000000000000000000000000000000008152600401610dee90613058565b60405180910390fd5b600e5442118015610e0b5750600c54600a54105b610e1457600080fd5b3373ffffffffffffffffffffffffffffffffffffffff166108fc600660003373ffffffffffffffffffffffffffffffffffffffff1673ffffffffffffffffffffffffffffffffffffffff168152602001908152602001600020549081150290604051600060405180830381858888f19350505050158015610e99573d6000803e3d6000fd5b507f1224e8211e3a580edbb682c18697495a9357f3f1e47efe4e083e73dea465e01f3033600660003373ffffffffffffffffffffffffffffffffffffffff1673ffffffffffffffffffffffffffffffffffffffff16815260200190815260200160002054604051610f0c93929190613078565b60405180910390a16000600660003373ffffffffffffffffffffffffffffffffffffffff1673ffffffffffffffffffffffffffffffffffffffff16815260200190815260200160002081905550565b600e5481565b6000600c54600a541015610f8657600a54600c54610f7f91906130af565b9050610f8b565b600090505b90565b6000600e54421115610fa35760019050610fa8565b600090505b90565b610fc6838383604051806020016040528060008152506112d7565b505050565b600960009054906101000a900473ffffffffffffffffffffffffffffffffffffffff1681565b6000806002600084815260200190815260200160002060009054906101000a900473ffffffffffffffffffffffffffffffffffffffff169050600073ffffffffffffffffffffffffffffffffffffffff168173ffffffffffffffffffffffffffffffffffffffff1603611099576040517f08c379a00000000000000000000000000000000000000000000000000000000081526004016110909061312f565b60405180910390fd5b80915050919050565b60066020528060005260406000206000915090505481565b60008073ffffffffffffffffffffffffffffffffffffffff168273ffffffffffffffffffffffffffffffffffffffff160361112a576040517f08c379a0000000000000000000000000000000000000000000000000000000008152600401611121906131c1565b60405180910390fd5b600360008373ffffffffffffffffffffffffffffffffffffffff1673ffffffffffffffffffffffffffffffffffffffff168152602001908152602001600020549050919050565b606060078054806020026020016040519081016040528092919081815260200182805480156111f557602002820191906000526020600020905b8160009054906101000a900473ffffffffffffffffffffffffffffffffffffffff1673ffffffffffffffffffffffffffffffffffffffff16815260200190600101908083116111ab575b5050505050905090565b600f5481565b600047905090565b600b5481565b60606001805461122290612b0a565b80601f016020809104026020016040519081016040528092919081815260200182805461124e90612b0a565b801561129b5780601f106112705761010080835404028352916020019161129b565b820191906000526020600020905b81548152906001019060200180831161127e57829003601f168201915b5050505050905090565b6112b76112b0611911565b8383611ea6565b5050565b6000600f5442106112cf57600190506112d4565b600090505b90565b6112e86112e2611911565b83611bab565b611327576040517f08c379a000000000000000000000000000000000000000000000000000000000815260040161131e90612fc6565b60405180910390fd5b61133384848484612012565b50505050565b6060611344826118c6565b600061134e61206e565b9050600081511161136e5760405180602001604052806000815250611399565b8061137884612085565b60405160200161138992919061321d565b6040516020818303038152906040525b915050919050565b600a5481565b600d5481565b3373ffffffffffffffffffffffffffffffffffffffff16600960009054906101000a900473ffffffffffffffffffffffffffffffffffffffff1673ffffffffffffffffffffffffffffffffffffffff160361143d576040517f08c379a00000000000000000000000000000000000000000000000000000000081526004016114349061328d565b60405180910390fd5b60003411611480576040517f08c379a0000000000000000000000000000000000000000000000000000000008152600401611477906132f9565b60405180910390fd5b600f544210156114c5576040517f08c379a00000000000000000000000000000000000000000000000000000000081526004016114bc90613365565b60405180910390fd5b60006114cf610f61565b1161150f576040517f08c379a0000000000000000000000000000000000000000000000000000000008152600401611506906133d1565b60405180910390fd5b600860003373ffffffffffffffffffffffffffffffffffffffff1673ffffffffffffffffffffffffffffffffffffffff16815260200190815260200160002060009054906101000a900460ff166116ea5734600660003373ffffffffffffffffffffffffffffffffffffffff1673ffffffffffffffffffffffffffffffffffffffff1681526020019081526020016000208190555034600a546115b29190612f20565b600a819055506007339080600181540180825580915050600190039060005260206000200160009091909190916101000a81548173ffffffffffffffffffffffffffffffffffffffff021916908373ffffffffffffffffffffffffffffffffffffffff1602179055506001600b600082825461162e9190612f20565b925050819055506001600860003373ffffffffffffffffffffffffffffffffffffffff1673ffffffffffffffffffffffffffffffffffffffff16815260200190815260200160002060006101000a81548160ff0219169083151502179055506001601160003373ffffffffffffffffffffffffffffffffffffffff1673ffffffffffffffffffffffffffffffffffffffff16815260200190815260200160002060006101000a81548160ff02191690831515021790555061178d565b600660003373ffffffffffffffffffffffffffffffffffffffff1673ffffffffffffffffffffffffffffffffffffffff16815260200190815260200160002054346117359190612f20565b600660003373ffffffffffffffffffffffffffffffffffffffff1673ffffffffffffffffffffffffffffffffffffffff1681526020019081526020016000208190555034600a546117869190612f20565b600a819055505b7f8a35b8c748e79b158c02fd0c175c0e5bd17677281b628c0dafa1c92631f0c8f033346040516117be9291906133f1565b60405180910390a1565b6000600560008473ffffffffffffffffffffffffffffffffffffffff1673ffffffffffffffffffffffffffffffffffffffff16815260200190815260200160002060008373ffffffffffffffffffffffffffffffffffffffff1673ffffffffffffffffffffffffffffffffffffffff16815260200190815260200160002060009054906101000a900460ff16905092915050565b60007f01ffc9a7000000000000000000000000000000000000000000000000000000007bffffffffffffffffffffffffffffffffffffffffffffffffffffffff1916827bffffffffffffffffffffffffffffffffffffffffffffffffffffffff1916149050919050565b6118cf816121e5565b61190e576040517f08c379a00000000000000000000000000000000000000000000000000000000081526004016119059061312f565b60405180910390fd5b50565b600033905090565b816004600083815260200190815260200160002060006101000a81548173ffffffffffffffffffffffffffffffffffffffff021916908373ffffffffffffffffffffffffffffffffffffffff160217905550808273ffffffffffffffffffffffffffffffffffffffff1661198c83610ff1565b73ffffffffffffffffffffffffffffffffffffffff167f8c5be1e5ebec7d5bd14f71427d1e84f3dd0314c0f7b2291e5b200ac8c7c3b92560405160405180910390a45050565b600073ffffffffffffffffffffffffffffffffffffffff168273ffffffffffffffffffffffffffffffffffffffff1603611a41576040517f08c379a0000000000000000000000000000000000000000000000000000000008152600401611a3890613466565b60405180910390fd5b611a4a816121e5565b15611a8a576040517f08c379a0000000000000000000000000000000000000000000000000000000008152600401611a81906134d2565b60405180910390fd5b611a9660008383612251565b6001600360008473ffffffffffffffffffffffffffffffffffffffff1673ffffffffffffffffffffffffffffffffffffffff1681526020019081526020016000206000828254611ae69190612f20565b92505081905550816002600083815260200190815260200160002060006101000a81548173ffffffffffffffffffffffffffffffffffffffff021916908373ffffffffffffffffffffffffffffffffffffffff160217905550808273ffffffffffffffffffffffffffffffffffffffff16600073ffffffffffffffffffffffffffffffffffffffff167fddf252ad1be2c89b69c2b068fc378daa952ba7f163c4a11628f55a4df523b3ef60405160405180910390a4611ba760008383612256565b5050565b600080611bb783610ff1565b90508073ffffffffffffffffffffffffffffffffffffffff168473ffffffffffffffffffffffffffffffffffffffff161480611bf95750611bf881856117c8565b5b80611c3757508373ffffffffffffffffffffffffffffffffffffffff16611c1f84610890565b73ffffffffffffffffffffffffffffffffffffffff16145b91505092915050565b8273ffffffffffffffffffffffffffffffffffffffff16611c6082610ff1565b73ffffffffffffffffffffffffffffffffffffffff1614611cb6576040517f08c379a0000000000000000000000000000000000000000000000000000000008152600401611cad90613564565b60405180910390fd5b600073ffffffffffffffffffffffffffffffffffffffff168273ffffffffffffffffffffffffffffffffffffffff1603611d25576040517f08c379a0000000000000000000000000000000000000000000000000000000008152600401611d1c906135f6565b60405180910390fd5b611d30838383612251565b611d3b600082611919565b6001600360008573ffffffffffffffffffffffffffffffffffffffff1673ffffffffffffffffffffffffffffffffffffffff1681526020019081526020016000206000828254611d8b91906130af565b925050819055506001600360008473ffffffffffffffffffffffffffffffffffffffff1673ffffffffffffffffffffffffffffffffffffffff1681526020019081526020016000206000828254611de29190612f20565b92505081905550816002600083815260200190815260200160002060006101000a81548173ffffffffffffffffffffffffffffffffffffffff021916908373ffffffffffffffffffffffffffffffffffffffff160217905550808273ffffffffffffffffffffffffffffffffffffffff168473ffffffffffffffffffffffffffffffffffffffff167fddf252ad1be2c89b69c2b068fc378daa952ba7f163c4a11628f55a4df523b3ef60405160405180910390a4611ea1838383612256565b505050565b8173ffffffffffffffffffffffffffffffffffffffff168373ffffffffffffffffffffffffffffffffffffffff1603611f14576040517f08c379a0000000000000000000000000000000000000000000000000000000008152600401611f0b90613662565b60405180910390fd5b80600560008573ffffffffffffffffffffffffffffffffffffffff1673ffffffffffffffffffffffffffffffffffffffff16815260200190815260200160002060008473ffffffffffffffffffffffffffffffffffffffff1673ffffffffffffffffffffffffffffffffffffffff16815260200190815260200160002060006101000a81548160ff0219169083151502179055508173ffffffffffffffffffffffffffffffffffffffff168373ffffffffffffffffffffffffffffffffffffffff167f17307eab39ab6107e8899845ad3d59bd9653f200f220920489ca2b5937696c318360405161200591906124b9565b60405180910390a3505050565b61201d848484611c40565b6120298484848461225b565b612068576040517f08c379a000000000000000000000000000000000000000000000000000000000815260040161205f906136f4565b60405180910390fd5b50505050565b606060405180602001604052806000815250905090565b6060600082036120cc576040518060400160405280600181526020017f300000000000000000000000000000000000000000000000000000000000000081525090506121e0565b600082905060005b600082146120fe5780806120e790613714565b915050600a826120f7919061378b565b91506120d4565b60008167ffffffffffffffff81111561211a576121196128ed565b5b6040519080825280601f01601f19166020018201604052801561214c5781602001600182028036833780820191505090505b5090505b600085146121d95760018261216591906130af565b9150600a8561217491906137bc565b60306121809190612f20565b60f81b818381518110612196576121956137ed565b5b60200101907effffffffffffffffffffffffffffffffffffffffffffffffffffffffffffff1916908160001a905350600a856121d2919061378b565b9450612150565b8093505050505b919050565b60008073ffffffffffffffffffffffffffffffffffffffff166002600084815260200190815260200160002060009054906101000a900473ffffffffffffffffffffffffffffffffffffffff1673ffffffffffffffffffffffffffffffffffffffff1614159050919050565b505050565b505050565b600061227c8473ffffffffffffffffffffffffffffffffffffffff166123e2565b156123d5578373ffffffffffffffffffffffffffffffffffffffff1663150b7a026122a5611911565b8786866040518563ffffffff1660e01b81526004016122c79493929190613871565b6020604051808303816000875af192505050801561230357506040513d601f19601f8201168201806040525081019061230091906138d2565b60015b612385573d8060008114612333576040519150601f19603f3d011682016040523d82523d6000602084013e612338565b606091505b50600081510361237d576040517f08c379a0000000000000000000000000000000000000000000000000000000008152600401612374906136f4565b60405180910390fd5b805181602001fd5b63150b7a0260e01b7bffffffffffffffffffffffffffffffffffffffffffffffffffffffff1916817bffffffffffffffffffffffffffffffffffffffffffffffffffffffff1916149150506123da565b600190505b949350505050565b6000808273ffffffffffffffffffffffffffffffffffffffff163b119050919050565b6000604051905090565b600080fd5b600080fd5b60007fffffffff0000000000000000000000000000000000000000000000000000000082169050919050565b61244e81612419565b811461245957600080fd5b50565b60008135905061246b81612445565b92915050565b6000602082840312156124875761248661240f565b5b60006124958482850161245c565b91505092915050565b60008115159050919050565b6124b38161249e565b82525050565b60006020820190506124ce60008301846124aa565b92915050565b600081519050919050565b600082825260208201905092915050565b60005b8381101561250e5780820151818401526020810190506124f3565b60008484015250505050565b6000601f19601f8301169050919050565b6000612536826124d4565b61254081856124df565b93506125508185602086016124f0565b6125598161251a565b840191505092915050565b6000602082019050818103600083015261257e818461252b565b905092915050565b6000819050919050565b61259981612586565b81146125a457600080fd5b50565b6000813590506125b681612590565b92915050565b6000602082840312156125d2576125d161240f565b5b60006125e0848285016125a7565b91505092915050565b600073ffffffffffffffffffffffffffffffffffffffff82169050919050565b6000612614826125e9565b9050919050565b61262481612609565b82525050565b600060208201905061263f600083018461261b565b92915050565b61264e81612609565b811461265957600080fd5b50565b60008135905061266b81612645565b92915050565b600080604083850312156126885761268761240f565b5b60006126968582860161265c565b92505060206126a7858286016125a7565b9150509250929050565b6126ba81612586565b82525050565b60006020820190506126d560008301846126b1565b92915050565b6000806000606084860312156126f4576126f361240f565b5b60006127028682870161265c565b93505060206127138682870161265c565b9250506040612724868287016125a7565b9150509250925092565b6000612739826125e9565b9050919050565b6127498161272e565b82525050565b60006020820190506127646000830184612740565b92915050565b6000602082840312156127805761277f61240f565b5b600061278e8482850161265c565b91505092915050565b600081519050919050565b600082825260208201905092915050565b6000819050602082019050919050565b6127cc81612609565b82525050565b60006127de83836127c3565b60208301905092915050565b6000602082019050919050565b600061280282612797565b61280c81856127a2565b9350612817836127b3565b8060005b8381101561284857815161282f88826127d2565b975061283a836127ea565b92505060018101905061281b565b5085935050505092915050565b6000602082019050818103600083015261286f81846127f7565b905092915050565b6128808161249e565b811461288b57600080fd5b50565b60008135905061289d81612877565b92915050565b600080604083850312156128ba576128b961240f565b5b60006128c88582860161265c565b92505060206128d98582860161288e565b9150509250929050565b600080fd5b600080fd5b7f4e487b7100000000000000000000000000000000000000000000000000000000600052604160045260246000fd5b6129258261251a565b810181811067ffffffffffffffff82111715612944576129436128ed565b5b80604052505050565b6000612957612405565b9050612963828261291c565b919050565b600067ffffffffffffffff821115612983576129826128ed565b5b61298c8261251a565b9050602081019050919050565b82818337600083830152505050565b60006129bb6129b684612968565b61294d565b9050828152602081018484840111156129d7576129d66128e8565b5b6129e2848285612999565b509392505050565b600082601f8301126129ff576129fe6128e3565b5b8135612a0f8482602086016129a8565b91505092915050565b60008060008060808587031215612a3257612a3161240f565b5b6000612a408782880161265c565b9450506020612a518782880161265c565b9350506040612a62878288016125a7565b925050606085013567ffffffffffffffff811115612a8357612a82612414565b5b612a8f878288016129ea565b91505092959194509250565b60008060408385031215612ab257612ab161240f565b5b6000612ac08582860161265c565b9250506020612ad18582860161265c565b9150509250929050565b7f4e487b7100000000000000000000000000000000000000000000000000000000600052602260045260246000fd5b60006002820490506001821680612b2257607f821691505b602082108103612b3557612b34612adb565b5b50919050565b7f4552433732313a20617070726f76616c20746f2063757272656e74206f776e6560008201527f7200000000000000000000000000000000000000000000000000000000000000602082015250565b6000612b976021836124df565b9150612ba282612b3b565b604082019050919050565b60006020820190508181036000830152612bc681612b8a565b9050919050565b7f4552433732313a20617070726f76652063616c6c6572206973206e6f7420746f60008201527f6b656e206f776e6572206e6f7220617070726f76656420666f7220616c6c0000602082015250565b6000612c29603e836124df565b9150612c3482612bcd565b604082019050919050565b60006020820190508181036000830152612c5881612c1c565b9050919050565b7f6f6e6c792066756e647261697365722063616e20636c61696d2074686520667560008201527f6e64730000000000000000000000000000000000000000000000000000000000602082015250565b6000612cbb6023836124df565b9150612cc682612c5f565b604082019050919050565b60006020820190508181036000830152612cea81612cae565b9050919050565b6000819050919050565b6000612d16612d11612d0c846125e9565b612cf1565b6125e9565b9050919050565b6000612d2882612cfb565b9050919050565b6000612d3a82612d1d565b9050919050565b612d4a81612d2f565b82525050565b6000606082019050612d65600083018661261b565b612d726020830185612d41565b612d7f60408301846126b1565b949350505050565b7f6661696c757265206f662066756e64696e6720736f2c20752063616e2774206360008201527f6c61696d206e6674730000000000000000000000000000000000000000000000602082015250565b6000612de36029836124df565b9150612dee82612d87565b604082019050919050565b60006020820190508181036000830152612e1281612dd6565b9050919050565b7f796f7572206e6f7420696e766573746f72000000000000000000000000000000600082015250565b6000612e4f6011836124df565b9150612e5a82612e19565b602082019050919050565b60006020820190508181036000830152612e7e81612e42565b9050919050565b7f6d696e74696e6720636f6d706c65746564000000000000000000000000000000600082015250565b6000612ebb6011836124df565b9150612ec682612e85565b602082019050919050565b60006020820190508181036000830152612eea81612eae565b9050919050565b7f4e487b7100000000000000000000000000000000000000000000000000000000600052601160045260246000fd5b6000612f2b82612586565b9150612f3683612586565b9250828201905080821115612f4e57612f4d612ef1565b5b92915050565b7f4552433732313a2063616c6c6572206973206e6f7420746f6b656e206f776e6560008201527f72206e6f7220617070726f766564000000000000000000000000000000000000602082015250565b6000612fb0602e836124df565b9150612fbb82612f54565b604082019050919050565b60006020820190508181036000830152612fdf81612fa3565b9050919050565b7f636c61696d656420616c6561726479206f7220757220617265206e6f7420746860008201527f6520696e766573746f7200000000000000000000000000000000000000000000602082015250565b6000613042602a836124df565b915061304d82612fe6565b604082019050919050565b6000602082019050818103600083015261307181613035565b9050919050565b600060608201905061308d600083018661261b565b61309a602083018561261b565b6130a760408301846126b1565b949350505050565b60006130ba82612586565b91506130c583612586565b92508282039050818111156130dd576130dc612ef1565b5b92915050565b7f4552433732313a20696e76616c696420746f6b656e2049440000000000000000600082015250565b60006131196018836124df565b9150613124826130e3565b602082019050919050565b600060208201905081810360008301526131488161310c565b9050919050565b7f4552433732313a2061646472657373207a65726f206973206e6f74206120766160008201527f6c6964206f776e65720000000000000000000000000000000000000000000000602082015250565b60006131ab6029836124df565b91506131b68261314f565b604082019050919050565b600060208201905081810360008301526131da8161319e565b9050919050565b600081905092915050565b60006131f7826124d4565b61320181856131e1565b93506132118185602086016124f0565b80840191505092915050565b600061322982856131ec565b915061323582846131ec565b91508190509392505050565b7f6f776e65722063616e2774207370616d2074686520706f6f6c00000000000000600082015250565b60006132776019836124df565b915061328282613241565b602082019050919050565b600060208201905081810360008301526132a68161326a565b9050919050565b7f6e6f7420656e6f7567682066756e647300000000000000000000000000000000600082015250565b60006132e36010836124df565b91506132ee826132ad565b602082019050919050565b60006020820190508181036000830152613312816132d6565b9050919050565b7f66756e64696e6720706f6f6c206973206e6f7420737461727465642079657400600082015250565b600061334f601f836124df565b915061335a82613319565b602082019050919050565b6000602082019050818103600083015261337e81613342565b9050919050565b7f66756e64696e6720676f616c2072656163686564000000000000000000000000600082015250565b60006133bb6014836124df565b91506133c682613385565b602082019050919050565b600060208201905081810360008301526133ea816133ae565b9050919050565b6000604082019050613406600083018561261b565b61341360208301846126b1565b9392505050565b7f4552433732313a206d696e7420746f20746865207a65726f2061646472657373600082015250565b60006134506020836124df565b915061345b8261341a565b602082019050919050565b6000602082019050818103600083015261347f81613443565b9050919050565b7f4552433732313a20746f6b656e20616c7265616479206d696e74656400000000600082015250565b60006134bc601c836124df565b91506134c782613486565b602082019050919050565b600060208201905081810360008301526134eb816134af565b9050919050565b7f4552433732313a207472616e736665722066726f6d20696e636f72726563742060008201527f6f776e6572000000000000000000000000000000000000000000000000000000602082015250565b600061354e6025836124df565b9150613559826134f2565b604082019050919050565b6000602082019050818103600083015261357d81613541565b9050919050565b7f4552433732313a207472616e7366657220746f20746865207a65726f2061646460008201527f7265737300000000000000000000000000000000000000000000000000000000602082015250565b60006135e06024836124df565b91506135eb82613584565b604082019050919050565b6000602082019050818103600083015261360f816135d3565b9050919050565b7f4552433732313a20617070726f766520746f2063616c6c657200000000000000600082015250565b600061364c6019836124df565b915061365782613616565b602082019050919050565b6000602082019050818103600083015261367b8161363f565b9050919050565b7f4552433732313a207472616e7366657220746f206e6f6e20455243373231526560008201527f63656976657220696d706c656d656e7465720000000000000000000000000000602082015250565b60006136de6032836124df565b91506136e982613682565b604082019050919050565b6000602082019050818103600083015261370d816136d1565b9050919050565b600061371f82612586565b91507fffffffffffffffffffffffffffffffffffffffffffffffffffffffffffffffff820361375157613750612ef1565b5b600182019050919050565b7f4e487b7100000000000000000000000000000000000000000000000000000000600052601260045260246000fd5b600061379682612586565b91506137a183612586565b9250826137b1576137b061375c565b5b828204905092915050565b60006137c782612586565b91506137d283612586565b9250826137e2576137e161375c565b5b828206905092915050565b7f4e487b7100000000000000000000000000000000000000000000000000000000600052603260045260246000fd5b600081519050919050565b600082825260208201905092915050565b60006138438261381c565b61384d8185613827565b935061385d8185602086016124f0565b6138668161251a565b840191505092915050565b6000608082019050613886600083018761261b565b613893602083018661261b565b6138a060408301856126b1565b81810360608301526138b28184613838565b905095945050505050565b6000815190506138cc81612445565b92915050565b6000602082840312156138e8576138e761240f565b5b60006138f6848285016138bd565b9150509291505056fea264697066735822122099224defea6715764ce28c1f849fc4a4d3a4716bc3de05f675b3f9ca6fee12e864736f6c63430008110033",
  "linkReferences": {},
  "deployedLinkReferences": {}
}