{
  "_format": "hh-sol-artifact-1",
  "contractName": "A",
  "sourceName": "contracts/storage.sol",
  "abi": [
    {
      "inputs": [
        {
          "internalType": "uint256",
          "name": "value",
          "type": "uint256"
        }
      ],
      "name": "addElements",
      "outputs": [],
      "stateMutability": "nonpayable",
      "type": "function"
    }
  ],
  "bytecode": "0x6080604052600a600055601460015534801561001a57600080fd5b506101058061002a6000396000f3fe6080604052348015600f57600080fd5b506004361060285760003560e01c80636bf4419514602d575b600080fd5b60436004803603810190603f919060a7565b6045565b005b600281908060018154018082558091505060019003906000526020600020016000909190919091505550565b600080fd5b6000819050919050565b6087816076565b8114609157600080fd5b50565b60008135905060a1816080565b92915050565b60006020828403121560ba5760b96071565b5b600060c6848285016094565b9150509291505056fea264697066735822122020c809421d2bda3d8d37eca9c7dd445c539b343da1a885e514a4a4f23b6e438f64736f6c63430008110033",
  "linkReferences": {},
  "deployedLinkReferences": {}
}