{
  "_format": "hh-sol-artifact-1",
  "contractName": "NFTMarketplace",
  "sourceName": "contracts/NFTmarketplace.sol",
  "abi": [
    {
      "anonymous": false,
      "inputs": [
        {
          "indexed": true,
          "internalType": "address",
          "name": "buyer",
          "type": "address"
        },
        {
          "indexed": true,
          "internalType": "address",
          "name": "nftAddress",
          "type": "address"
        },
        {
          "indexed": true,
          "internalType": "uint256",
          "name": "tokenId",
          "type": "uint256"
        },
        {
          "indexed": false,
          "internalType": "uint256",
          "name": "price",
          "type": "uint256"
        }
      ],
      "name": "ItemBought",
      "type": "event"
    },
    {
      "anonymous": false,
      "inputs": [
        {
          "indexed": true,
          "internalType": "address",
          "name": "seller",
          "type": "address"
        },
        {
          "indexed": true,
          "internalType": "uint256",
          "name": "tokenId",
          "type": "uint256"
        },
        {
          "indexed": true,
          "internalType": "address",
          "name": "owner",
          "type": "address"
        }
      ],
      "name": "Itemcancelled",
      "type": "event"
    },
    {
      "anonymous": false,
      "inputs": [
        {
          "indexed": true,
          "internalType": "address",
          "name": "sender",
          "type": "address"
        },
        {
          "indexed": true,
          "internalType": "address",
          "name": "nftAddress",
          "type": "address"
        },
        {
          "indexed": true,
          "internalType": "uint256",
          "name": "tokenId",
          "type": "uint256"
        },
        {
          "indexed": false,
          "internalType": "uint256",
          "name": "price",
          "type": "uint256"
        }
      ],
      "name": "itemListed",
      "type": "event"
    },
    {
      "anonymous": false,
      "inputs": [
        {
          "indexed": true,
          "internalType": "address",
          "name": "nftAddress",
          "type": "address"
        },
        {
          "indexed": true,
          "internalType": "uint256",
          "name": "tokenId",
          "type": "uint256"
        },
        {
          "indexed": true,
          "internalType": "uint256",
          "name": "price",
          "type": "uint256"
        },
        {
          "indexed": false,
          "internalType": "address",
          "name": "seller",
          "type": "address"
        }
      ],
      "name": "updatedPrice",
      "type": "event"
    },
    {
      "stateMutability": "payable",
      "type": "fallback"
    },
    {
      "inputs": [],
      "name": "NFTcontractABI",
      "outputs": [
        {
          "internalType": "contract NFT",
          "name": "",
          "type": "address"
        }
      ],
      "stateMutability": "view",
      "type": "function"
    },
    {
      "inputs": [
        {
          "internalType": "address",
          "name": "nftAddress",
          "type": "address"
        },
        {
          "internalType": "uint256",
          "name": "tokenId",
          "type": "uint256"
        },
        {
          "internalType": "uint256",
          "name": "price",
          "type": "uint256"
        }
      ],
      "name": "addTtemToMarketplace",
      "outputs": [],
      "stateMutability": "nonpayable",
      "type": "function"
    },
    {
      "inputs": [
        {
          "internalType": "address",
          "name": "nftAddress",
          "type": "address"
        },
        {
          "internalType": "uint256",
          "name": "tokenId",
          "type": "uint256"
        }
      ],
      "name": "buy",
      "outputs": [],
      "stateMutability": "payable",
      "type": "function"
    },
    {
      "inputs": [
        {
          "internalType": "address",
          "name": "nftAddress",
          "type": "address"
        },
        {
          "internalType": "uint256",
          "name": "tokenId",
          "type": "uint256"
        }
      ],
      "name": "cancleListing",
      "outputs": [],
      "stateMutability": "nonpayable",
      "type": "function"
    },
    {
      "inputs": [],
      "name": "nftCount",
      "outputs": [
        {
          "internalType": "uint256",
          "name": "",
          "type": "uint256"
        }
      ],
      "stateMutability": "view",
      "type": "function"
    },
    {
      "inputs": [],
      "name": "sellerWithdraw",
      "outputs": [],
      "stateMutability": "payable",
      "type": "function"
    },
    {
      "inputs": [
        {
          "internalType": "address",
          "name": "nftAddress",
          "type": "address"
        },
        {
          "internalType": "uint256",
          "name": "tokenId",
          "type": "uint256"
        },
        {
          "internalType": "uint256",
          "name": "price",
          "type": "uint256"
        }
      ],
      "name": "updateNFTPrice",
      "outputs": [],
      "stateMutability": "nonpayable",
      "type": "function"
    },
    {
      "stateMutability": "payable",
      "type": "receive"
    }
  ],
  "bytecode": "0x6080604052600060045534801561001557600080fd5b506001600081905550611ae78061002d6000396000f3fe6080604052600436106100745760003560e01c8063cce7ec131161004e578063cce7ec13146100db578063d9b9543a146100f7578063e2af603c14610122578063e66925a41461014b5761007b565b80630af2c6ca1461007d5780632bc268af146100a857806366af746b146100d15761007b565b3661007b57005b005b34801561008957600080fd5b50610092610174565b60405161009f919061133a565b60405180910390f35b3480156100b457600080fd5b506100cf60048036038101906100ca91906113e4565b61017a565b005b6100d9610489565b005b6100f560048036038101906100f09190611437565b6106ef565b005b34801561010357600080fd5b5061010c610b11565b60405161011991906114d6565b60405180910390f35b34801561012e57600080fd5b50610149600480360381019061014491906113e4565b610b37565b005b34801561015757600080fd5b50610172600480360381019061016d9190611437565b611038565b005b60045481565b82826000600260008473ffffffffffffffffffffffffffffffffffffffff1673ffffffffffffffffffffffffffffffffffffffff16815260200190815260200160002060008381526020019081526020016000206000015411610212576040517f08c379a000000000000000000000000000000000000000000000000000000000815260040161020990611574565b60405180910390fd5b84843382600560006101000a81548173ffffffffffffffffffffffffffffffffffffffff021916908373ffffffffffffffffffffffffffffffffffffffff1602179055506000600560009054906101000a900473ffffffffffffffffffffffffffffffffffffffff1673ffffffffffffffffffffffffffffffffffffffff16636352211e846040518263ffffffff1660e01b81526004016102b3919061133a565b602060405180830381865afa1580156102d0573d6000803e3d6000fd5b505050506040513d601f19601f820116820180604052508101906102f491906115a9565b90508073ffffffffffffffffffffffffffffffffffffffff168273ffffffffffffffffffffffffffffffffffffffff1614610364576040517f08c379a000000000000000000000000000000000000000000000000000000000815260040161035b90611622565b60405180910390fd5b6000600260008b73ffffffffffffffffffffffffffffffffffffffff1673ffffffffffffffffffffffffffffffffffffffff16815260200190815260200160002060008a8152602001908152602001600020604051806040016040529081600082015481526020016001820160009054906101000a900473ffffffffffffffffffffffffffffffffffffffff1673ffffffffffffffffffffffffffffffffffffffff1673ffffffffffffffffffffffffffffffffffffffff168152505090508781600001818152505087898b73ffffffffffffffffffffffffffffffffffffffff167f99f872d008b01f58e8b4f91a8be214bea11b76ba61c39f2f7cf8debdaea3f652336040516104759190611651565b60405180910390a450505050505050505050565b6002600054036104ce576040517f08c379a00000000000000000000000000000000000000000000000000000000081526004016104c5906116b8565b60405180910390fd5b6002600081905550600160003373ffffffffffffffffffffffffffffffffffffffff1673ffffffffffffffffffffffffffffffffffffffff16815260200190815260200160002060009054906101000a900460ff1661052c57600080fd5b6000600360003373ffffffffffffffffffffffffffffffffffffffff1673ffffffffffffffffffffffffffffffffffffffff16815260200190815260200160002054116105ae576040517f08c379a00000000000000000000000000000000000000000000000000000000081526004016105a590611724565b60405180910390fd5b6000600360003373ffffffffffffffffffffffffffffffffffffffff1673ffffffffffffffffffffffffffffffffffffffff1681526020019081526020016000205490506000600360003373ffffffffffffffffffffffffffffffffffffffff1673ffffffffffffffffffffffffffffffffffffffff1681526020019081526020016000208190555060003373ffffffffffffffffffffffffffffffffffffffff168260405161065d90611775565b60006040518083038185875af1925050503d806000811461069a576040519150601f19603f3d011682016040523d82523d6000602084013e61069f565b606091505b50509050806106e3576040517f08c379a00000000000000000000000000000000000000000000000000000000081526004016106da906117d6565b60405180910390fd5b50506001600081905550565b81816000600260008473ffffffffffffffffffffffffffffffffffffffff1673ffffffffffffffffffffffffffffffffffffffff16815260200190815260200160002060008381526020019081526020016000206000015411610787576040517f08c379a000000000000000000000000000000000000000000000000000000000815260040161077e90611574565b60405180910390fd5b6002600054036107cc576040517f08c379a00000000000000000000000000000000000000000000000000000000081526004016107c3906116b8565b60405180910390fd5b60026000819055506000600260008673ffffffffffffffffffffffffffffffffffffffff1673ffffffffffffffffffffffffffffffffffffffff1681526020019081526020016000206000858152602001908152602001600020604051806040016040529081600082015481526020016001820160009054906101000a900473ffffffffffffffffffffffffffffffffffffffff1673ffffffffffffffffffffffffffffffffffffffff1673ffffffffffffffffffffffffffffffffffffffff1681525050905080600001513410156108da576040517f08c379a00000000000000000000000000000000000000000000000000000000081526004016108d190611842565b60405180910390fd5b3460036000600260008973ffffffffffffffffffffffffffffffffffffffff1673ffffffffffffffffffffffffffffffffffffffff168152602001908152602001600020600088815260200190815260200160002060010160009054906101000a900473ffffffffffffffffffffffffffffffffffffffff1673ffffffffffffffffffffffffffffffffffffffff1673ffffffffffffffffffffffffffffffffffffffff168152602001908152602001600020600082825461099c9190611891565b925050819055508473ffffffffffffffffffffffffffffffffffffffff166342842e0e826020015133876040518463ffffffff1660e01b81526004016109e4939291906118c5565b600060405180830381600087803b1580156109fe57600080fd5b505af1158015610a12573d6000803e3d6000fd5b50505050600260008673ffffffffffffffffffffffffffffffffffffffff1673ffffffffffffffffffffffffffffffffffffffff16815260200190815260200160002060008581526020019081526020016000206000808201600090556001820160006101000a81549073ffffffffffffffffffffffffffffffffffffffff02191690555050838573ffffffffffffffffffffffffffffffffffffffff163373ffffffffffffffffffffffffffffffffffffffff167f263223b1dd81e51054a4e6f791d45a4a1ddb4aadcd93a2dfd892615c3fdac1878460000151604051610afa919061133a565b60405180910390a450600160008190555050505050565b600560009054906101000a900473ffffffffffffffffffffffffffffffffffffffff1681565b82826000600260008473ffffffffffffffffffffffffffffffffffffffff1673ffffffffffffffffffffffffffffffffffffffff1681526020019081526020016000206000838152602001908152602001600020600001541115610bd0576040517f08c379a0000000000000000000000000000000000000000000000000000000008152600401610bc790611948565b60405180910390fd5b84843382600560006101000a81548173ffffffffffffffffffffffffffffffffffffffff021916908373ffffffffffffffffffffffffffffffffffffffff1602179055506000600560009054906101000a900473ffffffffffffffffffffffffffffffffffffffff1673ffffffffffffffffffffffffffffffffffffffff16636352211e846040518263ffffffff1660e01b8152600401610c71919061133a565b602060405180830381865afa158015610c8e573d6000803e3d6000fd5b505050506040513d601f19601f82011682018060405250810190610cb291906115a9565b90508073ffffffffffffffffffffffffffffffffffffffff168273ffffffffffffffffffffffffffffffffffffffff1614610d22576040517f08c379a0000000000000000000000000000000000000000000000000000000008152600401610d1990611622565b60405180910390fd5b60008711610d65576040517f08c379a0000000000000000000000000000000000000000000000000000000008152600401610d5c906119b4565b60405180910390fd5b3073ffffffffffffffffffffffffffffffffffffffff16600560009054906101000a900473ffffffffffffffffffffffffffffffffffffffff1673ffffffffffffffffffffffffffffffffffffffff1663081812fc8a6040518263ffffffff1660e01b8152600401610dd7919061133a565b602060405180830381865afa158015610df4573d6000803e3d6000fd5b505050506040513d601f19601f82011682018060405250810190610e1891906115a9565b73ffffffffffffffffffffffffffffffffffffffff1614610e6e576040517f08c379a0000000000000000000000000000000000000000000000000000000008152600401610e6590611a20565b60405180910390fd5b86600260008b73ffffffffffffffffffffffffffffffffffffffff1673ffffffffffffffffffffffffffffffffffffffff16815260200190815260200160002060008a81526020019081526020016000206000018190555033600260008b73ffffffffffffffffffffffffffffffffffffffff1673ffffffffffffffffffffffffffffffffffffffff16815260200190815260200160002060008a815260200190815260200160002060010160006101000a81548173ffffffffffffffffffffffffffffffffffffffff021916908373ffffffffffffffffffffffffffffffffffffffff16021790555060018060003373ffffffffffffffffffffffffffffffffffffffff1673ffffffffffffffffffffffffffffffffffffffff16815260200190815260200160002060006101000a81548160ff02191690831515021790555060046000815480929190610fc290611a40565b9190505550878973ffffffffffffffffffffffffffffffffffffffff163373ffffffffffffffffffffffffffffffffffffffff167f9c6dfa5625407c4edd0ed0f699daa1eead567ca67ff49c153034999b20445d298a604051611025919061133a565b60405180910390a4505050505050505050565b81816000600260008473ffffffffffffffffffffffffffffffffffffffff1673ffffffffffffffffffffffffffffffffffffffff168152602001908152602001600020600083815260200190815260200160002060000154116110d0576040517f08c379a00000000000000000000000000000000000000000000000000000000081526004016110c790611574565b60405180910390fd5b83833382600560006101000a81548173ffffffffffffffffffffffffffffffffffffffff021916908373ffffffffffffffffffffffffffffffffffffffff1602179055506000600560009054906101000a900473ffffffffffffffffffffffffffffffffffffffff1673ffffffffffffffffffffffffffffffffffffffff16636352211e846040518263ffffffff1660e01b8152600401611171919061133a565b602060405180830381865afa15801561118e573d6000803e3d6000fd5b505050506040513d601f19601f820116820180604052508101906111b291906115a9565b90508073ffffffffffffffffffffffffffffffffffffffff168273ffffffffffffffffffffffffffffffffffffffff1614611222576040517f08c379a000000000000000000000000000000000000000000000000000000000815260040161121990611622565b60405180910390fd5b600260008973ffffffffffffffffffffffffffffffffffffffff1673ffffffffffffffffffffffffffffffffffffffff16815260200190815260200160002060008881526020019081526020016000206000808201600090556001820160006101000a81549073ffffffffffffffffffffffffffffffffffffffff02191690555050600460008154809291906112b790611a88565b91905055503373ffffffffffffffffffffffffffffffffffffffff16878973ffffffffffffffffffffffffffffffffffffffff167f8d6702f5b63ded964ae3c43a5a5e5213eeb1999c05651bcb3d5f7f21dce1e95d60405160405180910390a45050505050505050565b6000819050919050565b61133481611321565b82525050565b600060208201905061134f600083018461132b565b92915050565b600080fd5b600073ffffffffffffffffffffffffffffffffffffffff82169050919050565b60006113858261135a565b9050919050565b6113958161137a565b81146113a057600080fd5b50565b6000813590506113b28161138c565b92915050565b6113c181611321565b81146113cc57600080fd5b50565b6000813590506113de816113b8565b92915050565b6000806000606084860312156113fd576113fc611355565b5b600061140b868287016113a3565b935050602061141c868287016113cf565b925050604061142d868287016113cf565b9150509250925092565b6000806040838503121561144e5761144d611355565b5b600061145c858286016113a3565b925050602061146d858286016113cf565b9150509250929050565b6000819050919050565b600061149c6114976114928461135a565b611477565b61135a565b9050919050565b60006114ae82611481565b9050919050565b60006114c0826114a3565b9050919050565b6114d0816114b5565b82525050565b60006020820190506114eb60008301846114c7565b92915050565b600082825260208201905092915050565b7f7572206e6f74206c6973746564206d656d62657220696e20746865204e46542060008201527f6d61726b6574706c616365000000000000000000000000000000000000000000602082015250565b600061155e602b836114f1565b915061156982611502565b604082019050919050565b6000602082019050818103600083015261158d81611551565b9050919050565b6000815190506115a38161138c565b92915050565b6000602082840312156115bf576115be611355565b5b60006115cd84828501611594565b91505092915050565b7f6e6f7420746865206f776e6572206f66204e4654000000000000000000000000600082015250565b600061160c6014836114f1565b9150611617826115d6565b602082019050919050565b6000602082019050818103600083015261163b816115ff565b9050919050565b61164b8161137a565b82525050565b60006020820190506116666000830184611642565b92915050565b7f5265656e7472616e637947756172643a207265656e7472616e742063616c6c00600082015250565b60006116a2601f836114f1565b91506116ad8261166c565b602082019050919050565b600060208201905081810360008301526116d181611695565b9050919050565b7f302062616c616e636520696e2074686520636f6e747261637400000000000000600082015250565b600061170e6019836114f1565b9150611719826116d8565b602082019050919050565b6000602082019050818103600083015261173d81611701565b9050919050565b600081905092915050565b50565b600061175f600083611744565b915061176a8261174f565b600082019050919050565b600061178082611752565b9150819050919050565b7f7769746864726177206661696c65640000000000000000000000000000000000600082015250565b60006117c0600f836114f1565b91506117cb8261178a565b602082019050919050565b600060208201905081810360008301526117ef816117b3565b9050919050565b7f6c65737320707269636520706179616d656e7400000000000000000000000000600082015250565b600061182c6013836114f1565b9150611837826117f6565b602082019050919050565b6000602082019050818103600083015261185b8161181f565b9050919050565b7f4e487b7100000000000000000000000000000000000000000000000000000000600052601160045260246000fd5b600061189c82611321565b91506118a783611321565b92508282019050808211156118bf576118be611862565b5b92915050565b60006060820190506118da6000830186611642565b6118e76020830185611642565b6118f4604083018461132b565b949350505050565b7f616c6561726479206c697374656420746865204e465400000000000000000000600082015250565b60006119326016836114f1565b915061193d826118fc565b602082019050919050565b6000602082019050818103600083015261196181611925565b9050919050565b7f7072696365206d7573742062652067726561746572207468616e203000000000600082015250565b600061199e601c836114f1565b91506119a982611968565b602082019050919050565b600060208201905081810360008301526119cd81611991565b9050919050565b7f6f70657261746f72206e6f7420617070726f7665640000000000000000000000600082015250565b6000611a0a6015836114f1565b9150611a15826119d4565b602082019050919050565b60006020820190508181036000830152611a39816119fd565b9050919050565b6000611a4b82611321565b91507fffffffffffffffffffffffffffffffffffffffffffffffffffffffffffffffff8203611a7d57611a7c611862565b5b600182019050919050565b6000611a9382611321565b915060008203611aa657611aa5611862565b5b60018203905091905056fea2646970667358221220c51991ce6c4472d1c527ad66ca7c10e5571cde4886a74af3602e285fdecf9dc264736f6c63430008110033",
  "linkReferences": {},
  "deployedLinkReferences": {}
}