{
  "_format": "hh-sol-artifact-1",
  "contractName": "NFT",
  "sourceName": "contracts/NFTcontract.sol",
  "abi": [
    {
      "inputs": [
        {
          "internalType": "string",
          "name": "_baseURI",
          "type": "string"
        }
      ],
      "stateMutability": "nonpayable",
      "type": "constructor"
    },
    {
      "anonymous": false,
      "inputs": [
        {
          "indexed": true,
          "internalType": "address",
          "name": "owner",
          "type": "address"
        },
        {
          "indexed": true,
          "internalType": "address",
          "name": "approved",
          "type": "address"
        },
        {
          "indexed": true,
          "internalType": "uint256",
          "name": "tokenId",
          "type": "uint256"
        }
      ],
      "name": "Approval",
      "type": "event"
    },
    {
      "anonymous": false,
      "inputs": [
        {
          "indexed": true,
          "internalType": "address",
          "name": "owner",
          "type": "address"
        },
        {
          "indexed": true,
          "internalType": "address",
          "name": "operator",
          "type": "address"
        },
        {
          "indexed": false,
          "internalType": "bool",
          "name": "approved",
          "type": "bool"
        }
      ],
      "name": "ApprovalForAll",
      "type": "event"
    },
    {
      "anonymous": false,
      "inputs": [
        {
          "indexed": true,
          "internalType": "address",
          "name": "from",
          "type": "address"
        },
        {
          "indexed": true,
          "internalType": "address",
          "name": "to",
          "type": "address"
        },
        {
          "indexed": true,
          "internalType": "uint256",
          "name": "tokenId",
          "type": "uint256"
        }
      ],
      "name": "Transfer",
      "type": "event"
    },
    {
      "anonymous": false,
      "inputs": [
        {
          "indexed": true,
          "internalType": "uint256",
          "name": "tokenId",
          "type": "uint256"
        }
      ],
      "name": "mintedNFT",
      "type": "event"
    },
    {
      "inputs": [
        {
          "internalType": "address",
          "name": "to",
          "type": "address"
        },
        {
          "internalType": "uint256",
          "name": "tokenId",
          "type": "uint256"
        }
      ],
      "name": "approve",
      "outputs": [],
      "stateMutability": "nonpayable",
      "type": "function"
    },
    {
      "inputs": [
        {
          "internalType": "address",
          "name": "owner",
          "type": "address"
        }
      ],
      "name": "balanceOf",
      "outputs": [
        {
          "internalType": "uint256",
          "name": "",
          "type": "uint256"
        }
      ],
      "stateMutability": "view",
      "type": "function"
    },
    {
      "inputs": [],
      "name": "baseURI",
      "outputs": [
        {
          "internalType": "string",
          "name": "",
          "type": "string"
        }
      ],
      "stateMutability": "view",
      "type": "function"
    },
    {
      "inputs": [
        {
          "internalType": "uint256",
          "name": "tokenId",
          "type": "uint256"
        }
      ],
      "name": "getApproved",
      "outputs": [
        {
          "internalType": "address",
          "name": "",
          "type": "address"
        }
      ],
      "stateMutability": "view",
      "type": "function"
    },
    {
      "inputs": [
        {
          "internalType": "address",
          "name": "owner",
          "type": "address"
        },
        {
          "internalType": "address",
          "name": "operator",
          "type": "address"
        }
      ],
      "name": "isApprovedForAll",
      "outputs": [
        {
          "internalType": "bool",
          "name": "",
          "type": "bool"
        }
      ],
      "stateMutability": "view",
      "type": "function"
    },
    {
      "inputs": [],
      "name": "maxTokenIds",
      "outputs": [
        {
          "internalType": "uint256",
          "name": "",
          "type": "uint256"
        }
      ],
      "stateMutability": "view",
      "type": "function"
    },
    {
      "inputs": [],
      "name": "mintNFT",
      "outputs": [],
      "stateMutability": "nonpayable",
      "type": "function"
    },
    {
      "inputs": [],
      "name": "name",
      "outputs": [
        {
          "internalType": "string",
          "name": "",
          "type": "string"
        }
      ],
      "stateMutability": "view",
      "type": "function"
    },
    {
      "inputs": [
        {
          "internalType": "uint256",
          "name": "tokenId",
          "type": "uint256"
        }
      ],
      "name": "ownerOf",
      "outputs": [
        {
          "internalType": "address",
          "name": "",
          "type": "address"
        }
      ],
      "stateMutability": "view",
      "type": "function"
    },
    {
      "inputs": [
        {
          "internalType": "address",
          "name": "from",
          "type": "address"
        },
        {
          "internalType": "address",
          "name": "to",
          "type": "address"
        },
        {
          "internalType": "uint256",
          "name": "tokenId",
          "type": "uint256"
        }
      ],
      "name": "safeTransferFrom",
      "outputs": [],
      "stateMutability": "nonpayable",
      "type": "function"
    },
    {
      "inputs": [
        {
          "internalType": "address",
          "name": "from",
          "type": "address"
        },
        {
          "internalType": "address",
          "name": "to",
          "type": "address"
        },
        {
          "internalType": "uint256",
          "name": "tokenId",
          "type": "uint256"
        },
        {
          "internalType": "bytes",
          "name": "data",
          "type": "bytes"
        }
      ],
      "name": "safeTransferFrom",
      "outputs": [],
      "stateMutability": "nonpayable",
      "type": "function"
    },
    {
      "inputs": [
        {
          "internalType": "address",
          "name": "operator",
          "type": "address"
        },
        {
          "internalType": "bool",
          "name": "approved",
          "type": "bool"
        }
      ],
      "name": "setApprovalForAll",
      "outputs": [],
      "stateMutability": "nonpayable",
      "type": "function"
    },
    {
      "inputs": [
        {
          "internalType": "bytes4",
          "name": "interfaceId",
          "type": "bytes4"
        }
      ],
      "name": "supportsInterface",
      "outputs": [
        {
          "internalType": "bool",
          "name": "",
          "type": "bool"
        }
      ],
      "stateMutability": "view",
      "type": "function"
    },
    {
      "inputs": [],
      "name": "symbol",
      "outputs": [
        {
          "internalType": "string",
          "name": "",
          "type": "string"
        }
      ],
      "stateMutability": "view",
      "type": "function"
    },
    {
      "inputs": [],
      "name": "tokenCount",
      "outputs": [
        {
          "internalType": "uint256",
          "name": "",
          "type": "uint256"
        }
      ],
      "stateMutability": "view",
      "type": "function"
    },
    {
      "inputs": [
        {
          "internalType": "uint256",
          "name": "tokenId",
          "type": "uint256"
        }
      ],
      "name": "tokenURI",
      "outputs": [
        {
          "internalType": "string",
          "name": "",
          "type": "string"
        }
      ],
      "stateMutability": "view",
      "type": "function"
    },
    {
      "inputs": [
        {
          "internalType": "address",
          "name": "from",
          "type": "address"
        },
        {
          "internalType": "address",
          "name": "to",
          "type": "address"
        },
        {
          "internalType": "uint256",
          "name": "tokenId",
          "type": "uint256"
        }
      ],
      "name": "transferFrom",
      "outputs": [],
      "stateMutability": "nonpayable",
      "type": "function"
    }
  ],
  "bytecode": "0x6080604052600a6008553480156200001657600080fd5b5060405162002e0738038062002e0783398181016040528101906200003c919062000282565b6040518060400160405280600e81526020017f4e46544d61726b6574506c6163650000000000000000000000000000000000008152506040518060400160405280600281526020017f4d500000000000000000000000000000000000000000000000000000000000008152508160009081620000b991906200051e565b508060019081620000cb91906200051e565b5050508060069081620000df91906200051e565b5060006007819055505062000605565b6000604051905090565b600080fd5b600080fd5b600080fd5b600080fd5b6000601f19601f8301169050919050565b7f4e487b7100000000000000000000000000000000000000000000000000000000600052604160045260246000fd5b62000158826200010d565b810181811067ffffffffffffffff821117156200017a57620001796200011e565b5b80604052505050565b60006200018f620000ef565b90506200019d82826200014d565b919050565b600067ffffffffffffffff821115620001c057620001bf6200011e565b5b620001cb826200010d565b9050602081019050919050565b60005b83811015620001f8578082015181840152602081019050620001db565b60008484015250505050565b60006200021b6200021584620001a2565b62000183565b9050828152602081018484840111156200023a576200023962000108565b5b62000247848285620001d8565b509392505050565b600082601f83011262000267576200026662000103565b5b81516200027984826020860162000204565b91505092915050565b6000602082840312156200029b576200029a620000f9565b5b600082015167ffffffffffffffff811115620002bc57620002bb620000fe565b5b620002ca848285016200024f565b91505092915050565b600081519050919050565b7f4e487b7100000000000000000000000000000000000000000000000000000000600052602260045260246000fd5b600060028204905060018216806200032657607f821691505b6020821081036200033c576200033b620002de565b5b50919050565b60008190508160005260206000209050919050565b60006020601f8301049050919050565b600082821b905092915050565b600060088302620003a67fffffffffffffffffffffffffffffffffffffffffffffffffffffffffffffffff8262000367565b620003b2868362000367565b95508019841693508086168417925050509392505050565b6000819050919050565b6000819050919050565b6000620003ff620003f9620003f384620003ca565b620003d4565b620003ca565b9050919050565b6000819050919050565b6200041b83620003de565b620004336200042a8262000406565b84845462000374565b825550505050565b600090565b6200044a6200043b565b6200045781848462000410565b505050565b5b818110156200047f576200047360008262000440565b6001810190506200045d565b5050565b601f821115620004ce57620004988162000342565b620004a38462000357565b81016020851015620004b3578190505b620004cb620004c28562000357565b8301826200045c565b50505b505050565b600082821c905092915050565b6000620004f360001984600802620004d3565b1980831691505092915050565b60006200050e8383620004e0565b9150826002028217905092915050565b6200052982620002d3565b67ffffffffffffffff8111156200054557620005446200011e565b5b6200055182546200030d565b6200055e82828562000483565b600060209050601f83116001811462000596576000841562000581578287015190505b6200058d858262000500565b865550620005fd565b601f198416620005a68662000342565b60005b82811015620005d057848901518255600182019150602085019450602081019050620005a9565b86831015620005f05784890151620005ec601f891682620004e0565b8355505b6001600288020188555050505b505050505050565b6127f280620006156000396000f3fe608060405234801561001057600080fd5b506004361061010b5760003560e01c80636352211e116100a25780639f181b5e116100715780639f181b5e146102a6578063a22cb465146102c4578063b88d4fde146102e0578063c87b56dd146102fc578063e985e9c51461032c5761010b565b80636352211e1461020a5780636c0360eb1461023a57806370a082311461025857806395d89b41146102885761010b565b806314f710fe116100de57806314f710fe146101aa57806323b872dd146101b457806342842e0e146101d05780635f769621146101ec5761010b565b806301ffc9a71461011057806306fdde0314610140578063081812fc1461015e578063095ea7b31461018e575b600080fd5b61012a60048036038101906101259190611791565b61035c565b60405161013791906117d9565b60405180910390f35b61014861043e565b6040516101559190611884565b60405180910390f35b610178600480360381019061017391906118dc565b6104d0565b604051610185919061194a565b60405180910390f35b6101a860048036038101906101a39190611991565b610516565b005b6101b261062d565b005b6101ce60048036038101906101c991906119d1565b6106cb565b005b6101ea60048036038101906101e591906119d1565b61072b565b005b6101f461074b565b6040516102019190611a33565b60405180910390f35b610224600480360381019061021f91906118dc565b610751565b604051610231919061194a565b60405180910390f35b610242610802565b60405161024f9190611884565b60405180910390f35b610272600480360381019061026d9190611a4e565b610890565b60405161027f9190611a33565b60405180910390f35b610290610947565b60405161029d9190611884565b60405180910390f35b6102ae6109d9565b6040516102bb9190611a33565b60405180910390f35b6102de60048036038101906102d99190611aa7565b6109df565b005b6102fa60048036038101906102f59190611c1c565b6109f5565b005b610316600480360381019061031191906118dc565b610a57565b6040516103239190611884565b60405180910390f35b61034660048036038101906103419190611c9f565b610aff565b60405161035391906117d9565b60405180910390f35b60007f80ac58cd000000000000000000000000000000000000000000000000000000007bffffffffffffffffffffffffffffffffffffffffffffffffffffffff1916827bffffffffffffffffffffffffffffffffffffffffffffffffffffffff1916148061042757507f5b5e139f000000000000000000000000000000000000000000000000000000007bffffffffffffffffffffffffffffffffffffffffffffffffffffffff1916827bffffffffffffffffffffffffffffffffffffffffffffffffffffffff1916145b80610437575061043682610b93565b5b9050919050565b60606000805461044d90611d0e565b80601f016020809104026020016040519081016040528092919081815260200182805461047990611d0e565b80156104c65780601f1061049b576101008083540402835291602001916104c6565b820191906000526020600020905b8154815290600101906020018083116104a957829003601f168201915b5050505050905090565b60006104db82610bfd565b6004600083815260200190815260200160002060009054906101000a900473ffffffffffffffffffffffffffffffffffffffff169050919050565b600061052182610751565b90508073ffffffffffffffffffffffffffffffffffffffff168373ffffffffffffffffffffffffffffffffffffffff1603610591576040517f08c379a000000000000000000000000000000000000000000000000000000000815260040161058890611db1565b60405180910390fd5b8073ffffffffffffffffffffffffffffffffffffffff166105b0610c48565b73ffffffffffffffffffffffffffffffffffffffff1614806105df57506105de816105d9610c48565b610aff565b5b61061e576040517f08c379a000000000000000000000000000000000000000000000000000000000815260040161061590611e43565b60405180910390fd5b6106288383610c50565b505050565b6008546007541115610674576040517f08c379a000000000000000000000000000000000000000000000000000000000815260040161066b90611eaf565b60405180910390fd5b6001600760008282546106879190611efe565b9250508190555061069a33600754610d09565b6007547f7b1e175a66d182a3654e9e023c8cb61651d12aae75ef78684294f6f281f6726960405160405180910390a2565b6106dc6106d6610c48565b82610ee2565b61071b576040517f08c379a000000000000000000000000000000000000000000000000000000000815260040161071290611fa4565b60405180910390fd5b610726838383610f77565b505050565b610746838383604051806020016040528060008152506109f5565b505050565b60085481565b6000806002600084815260200190815260200160002060009054906101000a900473ffffffffffffffffffffffffffffffffffffffff169050600073ffffffffffffffffffffffffffffffffffffffff168173ffffffffffffffffffffffffffffffffffffffff16036107f9576040517f08c379a00000000000000000000000000000000000000000000000000000000081526004016107f090612010565b60405180910390fd5b80915050919050565b6006805461080f90611d0e565b80601f016020809104026020016040519081016040528092919081815260200182805461083b90611d0e565b80156108885780601f1061085d57610100808354040283529160200191610888565b820191906000526020600020905b81548152906001019060200180831161086b57829003601f168201915b505050505081565b60008073ffffffffffffffffffffffffffffffffffffffff168273ffffffffffffffffffffffffffffffffffffffff1603610900576040517f08c379a00000000000000000000000000000000000000000000000000000000081526004016108f7906120a2565b60405180910390fd5b600360008373ffffffffffffffffffffffffffffffffffffffff1673ffffffffffffffffffffffffffffffffffffffff168152602001908152602001600020549050919050565b60606001805461095690611d0e565b80601f016020809104026020016040519081016040528092919081815260200182805461098290611d0e565b80156109cf5780601f106109a4576101008083540402835291602001916109cf565b820191906000526020600020905b8154815290600101906020018083116109b257829003601f168201915b5050505050905090565b60075481565b6109f16109ea610c48565b83836111dd565b5050565b610a06610a00610c48565b83610ee2565b610a45576040517f08c379a0000000000000000000000000000000000000000000000000000000008152600401610a3c90611fa4565b60405180910390fd5b610a5184848484611349565b50505050565b6060610a62826113a5565b610aa1576040517f08c379a0000000000000000000000000000000000000000000000000000000008152600401610a9890612134565b60405180910390fd5b600060068054610ab090611d0e565b905011610acc5760405180602001604052806000815250610af8565b6006610ad783611411565b604051602001610ae8929190612274565b6040516020818303038152906040525b9050919050565b6000600560008473ffffffffffffffffffffffffffffffffffffffff1673ffffffffffffffffffffffffffffffffffffffff16815260200190815260200160002060008373ffffffffffffffffffffffffffffffffffffffff1673ffffffffffffffffffffffffffffffffffffffff16815260200190815260200160002060009054906101000a900460ff16905092915050565b60007f01ffc9a7000000000000000000000000000000000000000000000000000000007bffffffffffffffffffffffffffffffffffffffffffffffffffffffff1916827bffffffffffffffffffffffffffffffffffffffffffffffffffffffff1916149050919050565b610c06816113a5565b610c45576040517f08c379a0000000000000000000000000000000000000000000000000000000008152600401610c3c90612010565b60405180910390fd5b50565b600033905090565b816004600083815260200190815260200160002060006101000a81548173ffffffffffffffffffffffffffffffffffffffff021916908373ffffffffffffffffffffffffffffffffffffffff160217905550808273ffffffffffffffffffffffffffffffffffffffff16610cc383610751565b73ffffffffffffffffffffffffffffffffffffffff167f8c5be1e5ebec7d5bd14f71427d1e84f3dd0314c0f7b2291e5b200ac8c7c3b92560405160405180910390a45050565b600073ffffffffffffffffffffffffffffffffffffffff168273ffffffffffffffffffffffffffffffffffffffff1603610d78576040517f08c379a0000000000000000000000000000000000000000000000000000000008152600401610d6f906122ef565b60405180910390fd5b610d81816113a5565b15610dc1576040517f08c379a0000000000000000000000000000000000000000000000000000000008152600401610db89061235b565b60405180910390fd5b610dcd60008383611571565b6001600360008473ffffffffffffffffffffffffffffffffffffffff1673ffffffffffffffffffffffffffffffffffffffff1681526020019081526020016000206000828254610e1d9190611efe565b92505081905550816002600083815260200190815260200160002060006101000a81548173ffffffffffffffffffffffffffffffffffffffff021916908373ffffffffffffffffffffffffffffffffffffffff160217905550808273ffffffffffffffffffffffffffffffffffffffff16600073ffffffffffffffffffffffffffffffffffffffff167fddf252ad1be2c89b69c2b068fc378daa952ba7f163c4a11628f55a4df523b3ef60405160405180910390a4610ede60008383611576565b5050565b600080610eee83610751565b90508073ffffffffffffffffffffffffffffffffffffffff168473ffffffffffffffffffffffffffffffffffffffff161480610f305750610f2f8185610aff565b5b80610f6e57508373ffffffffffffffffffffffffffffffffffffffff16610f56846104d0565b73ffffffffffffffffffffffffffffffffffffffff16145b91505092915050565b8273ffffffffffffffffffffffffffffffffffffffff16610f9782610751565b73ffffffffffffffffffffffffffffffffffffffff1614610fed576040517f08c379a0000000000000000000000000000000000000000000000000000000008152600401610fe4906123ed565b60405180910390fd5b600073ffffffffffffffffffffffffffffffffffffffff168273ffffffffffffffffffffffffffffffffffffffff160361105c576040517f08c379a00000000000000000000000000000000000000000000000000000000081526004016110539061247f565b60405180910390fd5b611067838383611571565b611072600082610c50565b6001600360008573ffffffffffffffffffffffffffffffffffffffff1673ffffffffffffffffffffffffffffffffffffffff16815260200190815260200160002060008282546110c2919061249f565b925050819055506001600360008473ffffffffffffffffffffffffffffffffffffffff1673ffffffffffffffffffffffffffffffffffffffff16815260200190815260200160002060008282546111199190611efe565b92505081905550816002600083815260200190815260200160002060006101000a81548173ffffffffffffffffffffffffffffffffffffffff021916908373ffffffffffffffffffffffffffffffffffffffff160217905550808273ffffffffffffffffffffffffffffffffffffffff168473ffffffffffffffffffffffffffffffffffffffff167fddf252ad1be2c89b69c2b068fc378daa952ba7f163c4a11628f55a4df523b3ef60405160405180910390a46111d8838383611576565b505050565b8173ffffffffffffffffffffffffffffffffffffffff168373ffffffffffffffffffffffffffffffffffffffff160361124b576040517f08c379a00000000000000000000000000000000000000000000000000000000081526004016112429061251f565b60405180910390fd5b80600560008573ffffffffffffffffffffffffffffffffffffffff1673ffffffffffffffffffffffffffffffffffffffff16815260200190815260200160002060008473ffffffffffffffffffffffffffffffffffffffff1673ffffffffffffffffffffffffffffffffffffffff16815260200190815260200160002060006101000a81548160ff0219169083151502179055508173ffffffffffffffffffffffffffffffffffffffff168373ffffffffffffffffffffffffffffffffffffffff167f17307eab39ab6107e8899845ad3d59bd9653f200f220920489ca2b5937696c318360405161133c91906117d9565b60405180910390a3505050565b611354848484610f77565b6113608484848461157b565b61139f576040517f08c379a0000000000000000000000000000000000000000000000000000000008152600401611396906125b1565b60405180910390fd5b50505050565b60008073ffffffffffffffffffffffffffffffffffffffff166002600084815260200190815260200160002060009054906101000a900473ffffffffffffffffffffffffffffffffffffffff1673ffffffffffffffffffffffffffffffffffffffff1614159050919050565b606060008203611458576040518060400160405280600181526020017f3000000000000000000000000000000000000000000000000000000000000000815250905061156c565b600082905060005b6000821461148a578080611473906125d1565b915050600a826114839190612648565b9150611460565b60008167ffffffffffffffff8111156114a6576114a5611af1565b5b6040519080825280601f01601f1916602001820160405280156114d85781602001600182028036833780820191505090505b5090505b60008514611565576001826114f1919061249f565b9150600a856115009190612679565b603061150c9190611efe565b60f81b818381518110611522576115216126aa565b5b60200101907effffffffffffffffffffffffffffffffffffffffffffffffffffffffffffff1916908160001a905350600a8561155e9190612648565b94506114dc565b8093505050505b919050565b505050565b505050565b600061159c8473ffffffffffffffffffffffffffffffffffffffff16611702565b156116f5578373ffffffffffffffffffffffffffffffffffffffff1663150b7a026115c5610c48565b8786866040518563ffffffff1660e01b81526004016115e7949392919061272e565b6020604051808303816000875af192505050801561162357506040513d601f19601f82011682018060405250810190611620919061278f565b60015b6116a5573d8060008114611653576040519150601f19603f3d011682016040523d82523d6000602084013e611658565b606091505b50600081510361169d576040517f08c379a0000000000000000000000000000000000000000000000000000000008152600401611694906125b1565b60405180910390fd5b805181602001fd5b63150b7a0260e01b7bffffffffffffffffffffffffffffffffffffffffffffffffffffffff1916817bffffffffffffffffffffffffffffffffffffffffffffffffffffffff1916149150506116fa565b600190505b949350505050565b6000808273ffffffffffffffffffffffffffffffffffffffff163b119050919050565b6000604051905090565b600080fd5b600080fd5b60007fffffffff0000000000000000000000000000000000000000000000000000000082169050919050565b61176e81611739565b811461177957600080fd5b50565b60008135905061178b81611765565b92915050565b6000602082840312156117a7576117a661172f565b5b60006117b58482850161177c565b91505092915050565b60008115159050919050565b6117d3816117be565b82525050565b60006020820190506117ee60008301846117ca565b92915050565b600081519050919050565b600082825260208201905092915050565b60005b8381101561182e578082015181840152602081019050611813565b60008484015250505050565b6000601f19601f8301169050919050565b6000611856826117f4565b61186081856117ff565b9350611870818560208601611810565b6118798161183a565b840191505092915050565b6000602082019050818103600083015261189e818461184b565b905092915050565b6000819050919050565b6118b9816118a6565b81146118c457600080fd5b50565b6000813590506118d6816118b0565b92915050565b6000602082840312156118f2576118f161172f565b5b6000611900848285016118c7565b91505092915050565b600073ffffffffffffffffffffffffffffffffffffffff82169050919050565b600061193482611909565b9050919050565b61194481611929565b82525050565b600060208201905061195f600083018461193b565b92915050565b61196e81611929565b811461197957600080fd5b50565b60008135905061198b81611965565b92915050565b600080604083850312156119a8576119a761172f565b5b60006119b68582860161197c565b92505060206119c7858286016118c7565b9150509250929050565b6000806000606084860312156119ea576119e961172f565b5b60006119f88682870161197c565b9350506020611a098682870161197c565b9250506040611a1a868287016118c7565b9150509250925092565b611a2d816118a6565b82525050565b6000602082019050611a486000830184611a24565b92915050565b600060208284031215611a6457611a6361172f565b5b6000611a728482850161197c565b91505092915050565b611a84816117be565b8114611a8f57600080fd5b50565b600081359050611aa181611a7b565b92915050565b60008060408385031215611abe57611abd61172f565b5b6000611acc8582860161197c565b9250506020611add85828601611a92565b9150509250929050565b600080fd5b600080fd5b7f4e487b7100000000000000000000000000000000000000000000000000000000600052604160045260246000fd5b611b298261183a565b810181811067ffffffffffffffff82111715611b4857611b47611af1565b5b80604052505050565b6000611b5b611725565b9050611b678282611b20565b919050565b600067ffffffffffffffff821115611b8757611b86611af1565b5b611b908261183a565b9050602081019050919050565b82818337600083830152505050565b6000611bbf611bba84611b6c565b611b51565b905082815260208101848484011115611bdb57611bda611aec565b5b611be6848285611b9d565b509392505050565b600082601f830112611c0357611c02611ae7565b5b8135611c13848260208601611bac565b91505092915050565b60008060008060808587031215611c3657611c3561172f565b5b6000611c448782880161197c565b9450506020611c558782880161197c565b9350506040611c66878288016118c7565b925050606085013567ffffffffffffffff811115611c8757611c86611734565b5b611c9387828801611bee565b91505092959194509250565b60008060408385031215611cb657611cb561172f565b5b6000611cc48582860161197c565b9250506020611cd58582860161197c565b9150509250929050565b7f4e487b7100000000000000000000000000000000000000000000000000000000600052602260045260246000fd5b60006002820490506001821680611d2657607f821691505b602082108103611d3957611d38611cdf565b5b50919050565b7f4552433732313a20617070726f76616c20746f2063757272656e74206f776e6560008201527f7200000000000000000000000000000000000000000000000000000000000000602082015250565b6000611d9b6021836117ff565b9150611da682611d3f565b604082019050919050565b60006020820190508181036000830152611dca81611d8e565b9050919050565b7f4552433732313a20617070726f76652063616c6c6572206973206e6f7420746f60008201527f6b656e206f776e6572206e6f7220617070726f76656420666f7220616c6c0000602082015250565b6000611e2d603e836117ff565b9150611e3882611dd1565b604082019050919050565b60006020820190508181036000830152611e5c81611e20565b9050919050565b7f457863656564206d6178696d756d2020737570706c7900000000000000000000600082015250565b6000611e996016836117ff565b9150611ea482611e63565b602082019050919050565b60006020820190508181036000830152611ec881611e8c565b9050919050565b7f4e487b7100000000000000000000000000000000000000000000000000000000600052601160045260246000fd5b6000611f09826118a6565b9150611f14836118a6565b9250828201905080821115611f2c57611f2b611ecf565b5b92915050565b7f4552433732313a2063616c6c6572206973206e6f7420746f6b656e206f776e6560008201527f72206e6f7220617070726f766564000000000000000000000000000000000000602082015250565b6000611f8e602e836117ff565b9150611f9982611f32565b604082019050919050565b60006020820190508181036000830152611fbd81611f81565b9050919050565b7f4552433732313a20696e76616c696420746f6b656e2049440000000000000000600082015250565b6000611ffa6018836117ff565b915061200582611fc4565b602082019050919050565b6000602082019050818103600083015261202981611fed565b9050919050565b7f4552433732313a2061646472657373207a65726f206973206e6f74206120766160008201527f6c6964206f776e65720000000000000000000000000000000000000000000000602082015250565b600061208c6029836117ff565b915061209782612030565b604082019050919050565b600060208201905081810360008301526120bb8161207f565b9050919050565b7f4552433732314d657461646174613a2055524920717565727920666f72206e6f60008201527f6e6578697374656e7420746f6b656e0000000000000000000000000000000000602082015250565b600061211e602f836117ff565b9150612129826120c2565b604082019050919050565b6000602082019050818103600083015261214d81612111565b9050919050565b600081905092915050565b60008190508160005260206000209050919050565b6000815461218181611d0e565b61218b8186612154565b945060018216600081146121a657600181146121bb576121ee565b60ff19831686528115158202860193506121ee565b6121c48561215f565b60005b838110156121e6578154818901526001820191506020810190506121c7565b838801955050505b50505092915050565b6000612202826117f4565b61220c8185612154565b935061221c818560208601611810565b80840191505092915050565b7f2e6a736f6e000000000000000000000000000000000000000000000000000000600082015250565b600061225e600583612154565b915061226982612228565b600582019050919050565b60006122808285612174565b915061228c82846121f7565b915061229782612251565b91508190509392505050565b7f4552433732313a206d696e7420746f20746865207a65726f2061646472657373600082015250565b60006122d96020836117ff565b91506122e4826122a3565b602082019050919050565b60006020820190508181036000830152612308816122cc565b9050919050565b7f4552433732313a20746f6b656e20616c7265616479206d696e74656400000000600082015250565b6000612345601c836117ff565b91506123508261230f565b602082019050919050565b6000602082019050818103600083015261237481612338565b9050919050565b7f4552433732313a207472616e736665722066726f6d20696e636f72726563742060008201527f6f776e6572000000000000000000000000000000000000000000000000000000602082015250565b60006123d76025836117ff565b91506123e28261237b565b604082019050919050565b60006020820190508181036000830152612406816123ca565b9050919050565b7f4552433732313a207472616e7366657220746f20746865207a65726f2061646460008201527f7265737300000000000000000000000000000000000000000000000000000000602082015250565b60006124696024836117ff565b91506124748261240d565b604082019050919050565b600060208201905081810360008301526124988161245c565b9050919050565b60006124aa826118a6565b91506124b5836118a6565b92508282039050818111156124cd576124cc611ecf565b5b92915050565b7f4552433732313a20617070726f766520746f2063616c6c657200000000000000600082015250565b60006125096019836117ff565b9150612514826124d3565b602082019050919050565b60006020820190508181036000830152612538816124fc565b9050919050565b7f4552433732313a207472616e7366657220746f206e6f6e20455243373231526560008201527f63656976657220696d706c656d656e7465720000000000000000000000000000602082015250565b600061259b6032836117ff565b91506125a68261253f565b604082019050919050565b600060208201905081810360008301526125ca8161258e565b9050919050565b60006125dc826118a6565b91507fffffffffffffffffffffffffffffffffffffffffffffffffffffffffffffffff820361260e5761260d611ecf565b5b600182019050919050565b7f4e487b7100000000000000000000000000000000000000000000000000000000600052601260045260246000fd5b6000612653826118a6565b915061265e836118a6565b92508261266e5761266d612619565b5b828204905092915050565b6000612684826118a6565b915061268f836118a6565b92508261269f5761269e612619565b5b828206905092915050565b7f4e487b7100000000000000000000000000000000000000000000000000000000600052603260045260246000fd5b600081519050919050565b600082825260208201905092915050565b6000612700826126d9565b61270a81856126e4565b935061271a818560208601611810565b6127238161183a565b840191505092915050565b6000608082019050612743600083018761193b565b612750602083018661193b565b61275d6040830185611a24565b818103606083015261276f81846126f5565b905095945050505050565b60008151905061278981611765565b92915050565b6000602082840312156127a5576127a461172f565b5b60006127b38482850161277a565b9150509291505056fea26469706673582212202b389f38326a24005e51b2aa29b6b57906de52be142c10c43a0d2b3304eb738c64736f6c63430008110033",
  "linkReferences": {},
  "deployedLinkReferences": {}
}